:1000000000000110E5000000810100006501000012
:1000100081010000810100008101000081010000D8
:100020008101000081010000810100000D04000039
:10003000810100008101000011040000150400008E
:1000400039420000394200003942000039420000C4
:1000500039420000394200003942000039420000B4
:1000600039420000394200003942000039420000A4
:100070003942000039420000394200003942000094
:100080003942000039420000394200003942000084
:100090003942000039420000394200003942000074
:1000A0003942000039420000394200003942000064
:1000B0003942000039420000394200003942000054
:1000C0003942000039420000394200003942000044
:1000D0003942000039420000394200003942000034
:1000E0003942000008B500F05DF900F079F900F040
:1000F00081F900F0A1F800F09BF807F077F90020F3
:1001000002F020FD07F0A0F800F0C2F840B141F283
:100110008734002507F096F98D4208BF8442F9D252
:1001200007F06AF818B90A490A480BF0E1FC012007
:1001300002F008FD064908480BF0DAFC07F0A2FFC0
:10014000064B07481B68D9680AF03CFCFEE700BF75
:10015000B4000100C0000100ED00010034060010F1
:10016000050101001EF0040F0CBFEFF30880EFF350
:1001700009808169004A1047DD0100007047FFFFD8
:1001800038B50F4C0F4B10481D782368D9680AF01A
:1001900019FC23680D49D8682A460AF09BFB0F2DED
:1001A000236807D80A4A0B4952F82520D8680AF074
:1001B00091FBFEE7D96808480AF004FCF9E700BFA4
:1001C0003406001004ED00E0400101005A01010076
:1001D0004C02010094010100B201010010B5044677
:1001E00000F04AF8236883606368C360A368036112
:1001F000E3684361236943626369013BC361A369A7
:100200008361E3690362BFF34F8F0549054BCA68F9
:1002100002F4E0621343CB60BFF34F8F00BFFDE7F2
:1002200000ED00E00400FA050048704700D8B8056A
:100230000048704700D8B8050E4B0722C3F8842049
:10024000AA210122C3F88020C3F88C105521C3F8DD
:100250008C10C3F8A821D3F888205205FBD51A6862
:1002600022F4704242F480421A6040F20112C3F854
:100270000421704700C00F400248034A034BC0E905
:100280000023704700000020EFBEADDE1041522178
:1002900038B5224C224B22689A423DD16268214BEC
:1002A0009A4239D1204D21482B68D9680AF08AFB3F
:1002B0002B68A2691E49D8680AF00CFB2B68E2691A
:1002C0001C49D8680AF006FB2B68226A1A49D868CC
:1002D0000AF000FB2B68A2681849D8680AF0FAFAFD
:1002E0002B68E2681649D8680AF0F4FA2B6822698C
:1002F0001449D8680AF0EEFA2B6862691249D86886
:100300000AF0E8FA2B681148D9680AF05BFB012073
:100310000023C4E9003338BD0020F9E700000020C5
:10032000EFBEADDE10415221340600108C020100F8
:10033000DF020100EE020100FD0201000C030100DA
:100340001B0301002A0301003903010048030100D7
:100350000E4A136810B50E4C1918A142116002D351
:100360000C4CA1420BD313600B4A0C491368184480
:10037000884208D30A49884205D2106001E0002B68
:10038000F2D0184610BD0023FBE700BF00000010AC
:10039000280000200080002004000010C87C00100D
:1003A00000000110094A0A4B0A498B4205D30A4B47
:1003B0000A4A0021934205D3704712F8010B03F853
:1003C000010BF2E703F8011BF4E700BFFC24010076
:1003D000000000100808001008080010C87C001079
:1003E000034AD2F8883043F47003C2F8883070476B
:1003F00000ED00E0044800232021C2180133292B1E
:1004000082F80013F9D1704700E100E000F058B81D
:1004100000F09EB800F0CEB808480068006880F38D
:1004200008884FF0000080F3148862B661B6BFF30D
:100430004F8FBFF36F8F00DF00BF000008ED00E0BB
:10044000DFF80C00016841F47001016070470000A2
:1004500088ED00E007B5002301930B4B1B680133C7
:1004600004D00A49EF2009F0C1FBFEE74FF0180362
:1004700083F31188BFF36F8FBFF34F8F019B002B66
:10048000FCD003B05DF804FB100800101C04010050
:100490004FF0807340F8043C074B40F80C3C21F0CF
:1004A00001016FF0020340F8081C40F8202C40F8CE
:1004B000243C4438704700BF55040000FFFFFFFF95
:1004C000074B19680868B0E8F04F80F30988BFF35C
:1004D0006F8F4FF0000080F311887047AFF30080FA
:1004E0001408001008B54FF0180383F31188BFF308
:1004F0006F8FBFF34F8F094A13680133012B1360CD
:100500000AD1074B1B6813F0FF0F05D0054940F2D5
:10051000AB1009F06BFBFEE708BD00BF1008001030
:1005200004ED00E036040100074A08B513682BB952
:1005300006494FF4D97009F059FBFEE7013B1360FF
:100540000BB983F3118808BD100800106B0401007B
:10055000EFF30980BFF36F8F154B1A681EF0100F71
:1005600008BF20ED108A20E9F04F10602DE9090046
:100570004FF0180080F31188BFF34F8FBFF36F8FD8
:1005800001F0DEFD4FF0000080F3118809BC19680E
:100590000868B0E8F04F1EF0100F08BFB0EC108AEA
:1005A00080F30988BFF36F8F704700BFAFF30080FF
:1005B0001408001008B54FF0180383F31188BFF337
:1005C0006F8FBFF34F8F01F015FC18B1034B4FF045
:1005D00080521A60002383F3118808BD04ED00E007
:1005E00010B5084A084C002323601360FFF71CFE77
:1005F0004FF47A73B0FBF3F0044B01381860072313
:10060000236010BD18E000E010E000E014E000E01E
:10061000334B344A13B51968914205D132494FF42E
:100620009A7009F0E3FAFEE71A68304B9A4205D156
:100630002F4940F2351009F0D9FAFEE72D4B1A7810
:10064000D2B20192FF221A701B782B4ADBB28DF8CE
:1006500003309DF8033003F018031370274A072373
:10066000136000219DF80300000603F1FF3409D454
:1006700011B1022B13600ED0214940F25D1009F038
:10068000B5FAFEE79DF803305B00DBB28DF803306E
:1006900001212346E6E74FF400731360019B154ADE
:1006A000DBB21370174B1A6842F478021A601A68AA
:1006B00042F078421A60FFF793FF134B00241C604E
:1006C000FFF7BEFE114A136843F040431360FFF783
:1006D000A3FE01F035FDFFF7BDFE204602B010BDC0
:1006E00000ED00E071C20F41E904010070C20F414A
:1006F0000C05010000E400E0080800100C080010E0
:100700002F05010020ED00E01008001034EF00E09C
:1007100008B5EFF305830F2B0BD90D4A9B5C0D4AEF
:1007200012789A4205D90C4940F2FE2009F05EFA8F
:10073000FEE70A4B0A4A1B68126803F4E06393421F
:1007400005D9084940F20E3009F050FAFEE708BD1D
:10075000F0E300E0080800107D0401000CED00E06B
:100760000C080010A704010038B5054601F03AFB5B
:1007700028460AF05FF9044618B10D4A13682B4465
:10078000136002F025FA02F031F90A4B1B88184277
:1007900005D02A4621464CB1382002F011FF01F065
:1007A000D9FB0CB909F012FA204638BDE920F4E76C
:1007B0007C2200100A00001010B50446A8B101F018
:1007C00011FB20460AF03EF902F002FA02F00EF99F
:1007D000064B1B88184204D000222146392002F023
:1007E000EFFEBDE8104001F0B5BB10BD0A000010DF
:1007F00000F108034FF0FF324360C0E902230361B8
:1008000000230360704700230361704743684B6017
:100810009A688A609A685160996003680861013338
:10082000036070470A68531C30B50AD103695A68DF
:100830004A6091608B60596003680861013303600E
:1008400030BD00F108035C6825689542EFD8234667
:10085000F9E7D0E9011203698A6051605968814261
:1008600008BF5A60002202611A68013A1A601868CB
:10087000704710B50446FFF735FEA46BFFF754FE32
:10088000B4FA84F0400910BDF8B51546026C866BC9
:10089000044652B9076847BB806801F059FFA7605A
:1008A00005460136A6632846F8BD65B940680AF0DA
:1008B000D1F86368226C1344A26863609342F0D35A
:1008C00023686360EDE7C0680AF0C4F8236CE2684F
:1008D00021685B421A448A42E2603EBFA2689B18CC
:1008E000E360022D01D116B1013E0025D9E735465E
:1008F000D7E7034610B41A6C084662B1D9689C6801
:100900001144A142D96024BF1968D960D9685DF843
:10091000044B0AF09FB85DF8044B704770B504466D
:10092000FFF7E0FD94F8455004F124066DB2002D68
:1009300014DCFF2384F84530FFF7F6FDFFF7D2FD06
:1009400094F8445004F110066DB2002D12DCFF2320
:1009500084F84430BDE87040FFF7E6BD636A002BC1
:10096000E7D0304601F0FCFC08B101F08DFD013DFF
:100970006DB2DCE72369002BE9D0304601F0F0FCD2
:1009800008B101F081FD013D6DB2DEE738B50D46DD
:10099000044628B91A4940F2031009F027F9FEE786
:1009A000FFF7A0FDD4E90F30226862604343D118FD
:1009B0001B1A1344A160E3600021FF23A16384F8A4
:1009C000443084F8453095B9236963B104F11000CF
:1009D00001F0C6FC38B10B4B4FF080521A60BFF3E8
:1009E0004F8FBFF36F8FFFF79FFD012038BD04F1DC
:1009F0001000FFF7FDFE04F12400FFF7F9FEF2E717
:100A0000B506010004ED00E070B5049C002908BFA4
:100A100022462260C4E90F010546012120461E46F8
:100A2000FFF7B4FF184B84F84C601988174E204626
:100A300001F0F3FF02F0CCF801F0D8FF3388184240
:100A400021D0204601F0E4FF338818421BD094F8EF
:100A50004C30042B17D8DFE803F00310160A1300FC
:100A60002A4621461120BDE8704002F0A9BD21466A
:100A70001220BDE8704002F01FBD21461320F8E7A8
:100A800021461720F5E770BD080000100A0000108D
:100A90001FB51C4628B919494FF49D7009F0A6F8F6
:100AA000FEE72BB916494FF49F7009F09FF8FEE757
:100AB00032B161B913494FF4A17009F097F8FEE71C
:100AC00029B1114940F2431009F090F8FEE7502394
:100AD0000393039B502B05D00C4940F24B1009F0B7
:100AE00085F8FEE7039B0094012384F846309DF8C7
:100AF0001830FFF789FF204604B010BDF205010051
:100B0000140601002A060100620601009A0601008F
:100B1000F7B50F461646054628B921494FF4BB7074
:100B200009F064F8FEE748435030FFF71DFE044625
:100B300068B1002380F8463000F15002009033463F
:100B400039462846FFF760FF204603B0F0BD02F0AB
:100B50003FF801F04BFF134B1B881842F4D0042ED2
:100B6000F2D801A353F826F07D0B0000930B000090
:100B7000490B0000890B0000990B00002A46002158
:100B8000412002F01DFDDFE70021422002F094FC2D
:100B9000DAE700214320F9E700214720F6E700BF0C
:100BA000F20501000A0000102DE9FF470E460192F0
:100BB0001D46044628B98F4940F2F12009F016F885
:100BC000FEE739B9036C2BB18B4940F2F22009F0F2
:100BD0000DF8FEE7022D08D1E36B012B05D0874904
:100BE00040F2F32009F002F8FEE701F027FD08B912
:100BF000019B4BBB002D824FDFF80C920CBF4FF0D6
:100C0000560A4FF0C20A4FF00008FFF76BFCA26BC8
:100C1000E36B9A4201D3022D4AD101F0D9FF784FFC
:100C200001F0E4FE3B8818421ED0204601F0F0FEA1
:100C30003B88184218D094F84C30042B14D8DFE8C5
:100C400003F009322D2D32006E4940F2F62008F0F3
:100C5000CDFFFEE7A26B002D02F1010221460CBF81
:100C60005020C02002F0ACFC2A4631462046FFF757
:100C70000BFE636A1BB104F1240001F071FB38B173
:100C8000614B4FF080521A60BFF34F8FBFF36F8FED
:100C9000FFF74AFC012004B0BDE8F087A26B2146B3
:100CA00001325120DEE72146522002F005FCDBE74D
:100CB000019BF3B9FFF738FC01F08AFF504E01F0B9
:100CC00095FE3388184212D0204601F0A1FE3388E9
:100CD00018420CD094F84C30042B08D8DFE803F00D
:100CE0007C03858503002146552002F0E5FB0020AA
:100CF000D1E7B8F1000F02D102A801F07FFBFFF7A6
:100D000013FC01F06FF8FFF7EDFB94F84430FF2B74
:100D100004BF002384F8443094F84530FF2B04BF0F
:100D2000002384F84530FFF7FFFB01A902A801F07A
:100D300071FB00284AD1FFF7D5FBA26BE36B9A4207
:100D400017D1FFF7F1FB01F043FF01F04FFE3B88A5
:100D500018421DD0204601F05BFE3B88184217D098
:100D600094F84C30042B13D8DFE803F00D2B272721
:100D70002B00FFF7D9FB2046FFF7D0FD01F0EAF882
:100D80004FF0010841E7A26B2146504602F018FCE3
:100D9000019904F1100001F0CBFA2046FFF7BEFDE7
:100DA00001F0D8F80028EBD14FF08053C9F800309B
:100DB000BFF34F8FBFF36F8FE2E7A26B214657203F
:100DC000E4E72146582002F077FBE1E72046FFF7F1
:100DD000A5FD01F0BFF86FE7002DA26B21460CBF07
:100DE0005320C12002F0ECFB81E7A26B2146542086
:100DF000F8E700BFB5060100BD0601000D070100C0
:100E00000A0000105407010004ED00E013B50022B1
:100E100000900B4601201146FFF73AFE044638B118
:100E2000002383600360C3601A461946FFF7BCFEC7
:100E3000204602B010BD10B5024600210120FFF788
:100E400067FE044638B1002383600360C3601A461E
:100E50001946FFF7A9FE204610BDFFFF2DE9F04718
:100E6000894690461F46044628B9444940F2C3309B
:100E700008F0BCFEFEE739B9036C2BB140494FF4D2
:100E8000717008F0B3FEFEE7022F08D1E36B012B6F
:100E900005D03C4940F2C53008F0A8FEFEE7FFF758
:100EA00037FCEFF311864FF0180383F31188BFF37B
:100EB0006F8FBFF34F8FA26BE36BDFF8CCA09A422A
:100EC00001D3022F3ED1204694F8455001F0A0FDF9
:100ED000BAF8003018426DB214D094F84C303BB1DF
:100EE000023B012B0ED8A26B214601325A2007E0AB
:100EF000A26B002F02F1010221460CBF5920C32032
:100F000002F05EFB3A4649462046FFF7BDFC6B1CEB
:100F100013D1636A0BB901200BE004F1240001F046
:100F20001FFA0028F7D0B8F1000FF4D00120C8F85C
:100F3000000086F31188BDE8F08701356DB284F8B2
:100F40004550E8E7204601F063FDBAF8003018404C
:100F5000EFD094F84C5035B1A81E01280BD8A26BE5
:100F600021465D2005E0002FA26B21460CBF5C20CE
:100F7000C42002F025FB0020DBE700BFB50601001E
:100F8000BD0601000D0701000A0000102DE9F04721
:100F900089469046044628B941494FF48C6008F0D0
:100FA00025FEFEE7036C2BB13E4940F2644008F099
:100FB0001DFEFEE703683BB983682BB13A4940F256
:100FC000694008F013FEFEE7FFF7A2FBEFF311867E
:100FD0004FF0180383F31188BFF36F8FBFF34F8F68
:100FE000A76BE36BDFF8C4A09F423CD2204694F885
:100FF000455001F00DFDBAF8003018426DB215D021
:1010000094F84C303BB1023B012B0FD8A26B214628
:1010100001325A2008E0A26BB8F1000F02F1010280
:1010200021460CBF5920C32002F0CAFA01376B1CBD
:10103000A76313D1636A0BB901200BE004F124000C
:1010400001F08EF90028F7D0B9F1000FF4D001209B
:10105000C9F8000086F31188BDE8F08701356DB24C
:1010600084F84550E8E7204601F0D2FCBAF8003099
:101070001840EFD094F84C5035B1A81E01280CD878
:10108000A26B21465D2006E0B8F1000FA26B21465D
:101090000CBF5C20C42002F093FA0020DAE700BF06
:1010A000B5060100720501008B0501000A00001061
:1010B0000022FFF76BBFFFFF2DE9F04385B00F461D
:1010C0000192044628B98C494FF4A06008F08EFDC7
:1010D000FEE739B9036C2BB1884940F2045008F09F
:1010E00085FDFEE701F0AAFA054638B9019B33B148
:1010F000834940F2095008F079FDFEE70025DFF84A
:101100000882DFF800929EE0A36B019A013B214622
:10111000602002F085FA013EA663236963B104F101
:10112000100001F01DF938B1764B4FF080521A6073
:10113000BFF34F8FBFF36F8FFFF7F6F9012005B0B4
:10114000BDE8F083A36B019A013B21466120E0E7F3
:10115000019A2146622002F033FADCE7019BDBB9F9
:10116000FFF7E2F901F034FD674D01F03FFC2B88F9
:10117000184200F0B380204601F04AFC2B88184248
:1011800000F0AC8094F84C30042B00F2A780DFE82C
:1011900003F09FACA7A7AC0015B902A801F02EF987
:1011A000FFF7C2F900F01EFEFFF79CF994F84430F7
:1011B000FF2B04BF002384F8443094F84530FF2B04
:1011C00004BF002384F84530FFF7AEF901A902A857
:1011D00001F020F9002870D12046FFF74AFB0028D3
:1011E00065D001F0F5FC01F001FCB8F800301842C0
:1011F00015D0204601F00CFCB8F8003018420ED093
:1012000094F84C30019A042B09D8DFE803F0034B23
:1012100047474B00A36B2146662002F001FA019973
:1012200004F1240001F084F82046FFF777FB00F07A
:1012300091FE38B94FF08053C9F80030BFF34F8F9B
:10124000BFF36F8F0125FFF74DF9A66B002E85D0F8
:1012500039462046FFF74DFB2B4D01F0B9FC01F05C
:10126000C5FB2B8818423FF456AF204601F0D0FB57
:101270002B8818423FF44FAF94F84C30042B3FF6C4
:101280004AAF01A252F823F00911000051110000E9
:10129000451100004511000051110000A36B2146CB
:1012A0006720BAE72146682002F08AF9B7E72046AE
:1012B000FFF734FB00F04EFEC4E72046FFF72EFB9D
:1012C00000F048FE2046FFF7D4FA0028BAD049E7DC
:1012D000A36B019A2146632002F0A2F900202EE7B9
:1012E000A36B019A21466420F6E7019A2146652006
:1012F00002F066F9F2E700BFAA070100B607010095
:101300005407010004ED00E00A0000102DE9F0434D
:1013100085B00446019128B9AA4940F2915008F0DD
:1013200065FCFEE7056C2DB1A74940F2955008F029
:101330005DFCFEE701F082F9064638B9019B5BB11E
:10134000A24940F29A5008F051FCFEE72E46DFF821
:101350008882DFF87C92C9E00546F8E7A36B019A22
:10136000013B2146602002F05BF92368013FA7633F
:1013700013B901F0DDFAA060236963B104F1100034
:1013800000F0EEFF38B1924B4FF080521A60BFF37D
:101390004F8FBFF36F8FFFF7C7F80125284605B0C1
:1013A000BDE8F083A36B019A013B21466120DAE797
:1013B000019A2146622002F003F9D6E7019B002B37
:1013C00033D12DB1834940F2E15008F00FFCFEE724
:1013D000FFF7AAF8804E01F0FBFB01F007FB338812
:1013E000184201D10025D9E7204601F011FB3388CE
:1013F0001842F7D094F84C30042BF3D8DFE803F010
:10140000030F0A0A0F00A36B019A2146632002F022
:1014100007F9C3E7A36B019A21466420F7E7019A15
:101420002146652002F0CCF8B8E716B902A800F012
:10143000E5FFFFF779F800F0D5FCFFF753F894F8D3
:101440004430FF2B04BF002384F8443094F8453027
:10145000FF2B04BF002384F84530FFF765F801A98E
:1014600002A800F0D7FF002879D12046FFF701FA43
:1014700000286ED001F0ACFB01F0B8FAB8F80030EB
:10148000184215D0204601F0C3FAB8F800301842CF
:101490000ED094F84C30042B0AD8DFE803F0035444
:1014A0004F4F5400A36B019A2146662002F0B8F812
:1014B00023683BB9FFF716F8A06801F0CFF805469E
:1014C000FFF732F8019904F1240000F031FF2046C3
:1014D000FFF724FA00F03EFD38B94FF08053C9F809
:1014E0000030BFF34F8FBFF36F8F0126FEF7FAFF77
:1014F000A76B002F3FF462AF01F06AFB364D01F09D
:1015000075FA2B8818423FF430AF204601F080FA7C
:101510002B8818423FF429AF94F84C30042B3FF647
:1015200024AF01A252F823F05D130000B1130000B4
:10153000A5130000A5130000B1130000A36B019ACE
:1015400021466720B2E7019A2146682002F038F868
:10155000AEE72046FFF7E2F900F0FCFCC5E72046C5
:10156000FFF7DCF900F0F6FC2046FFF782F90028CF
:10157000BBD065B1FEF7B6FF616A19B1236B19687C
:10158000C1F10A01A06801F055F9FEF7CDFF01F0A5
:101590001FFB114D01F02AFA2B8818423FF422AFAD
:1015A000204601F035FA2B8818423FF41BAF94F81F
:1015B0004C30042B3FF616AFDFE803F0101C171772
:1015C0001C0000BFAA0701007205010054070100BA
:1015D00004ED00E0540801000A000010A36B019A1A
:1015E0002146632002F01CF8FCE6A36B019A214619
:1015F0006420F7E7019A2146652001F0E1FFF1E65A
:101600002DE9F04789469046044628B93B4940F207
:10161000FB6008F0EBFAFEE739B9036C2BB13849EF
:1016200040F2FC6008F0E2FAFEE7FFF771F8EFF332
:1016300011874FF0180383F31188BFF36F8FBFF347
:101640004F8FA56BDFF8BCA0002D3BD0204694F84F
:10165000446001F0DDF9BAF80030184276B210D0DB
:1016600094F84C303BB1023B012B0AD8A26B2146C7
:10167000013A6A2003E0A26B2146013A692001F099
:101680009FFF49462046FFF734F9013D731CA563CF
:1016900013D123690BB901200BE004F1100000F015
:1016A0005FFE0028F7D0B8F1000FF4D00120C8F891
:1016B000000087F31188BDE8F087013676B284F820
:1016C0004460E8E7204601F0A3F9BAF8003018407A
:1016D000EFD094F84C604EB1B01E012804D8A26B34
:1016E00021466D2001F06CFF2846E2E76C20A26BDA
:1016F000214601F065FF3046DBE700BFB50601007B
:10170000090801000A00001010B5044628B906496E
:1017100040F28A7008F06AFAFEE7FEF7E3FEA46B77
:10172000FEF702FF204610BDB606010038B504469C
:1017300028B91B4940F2B77008F058FAFEE701F0EB
:1017400047FA184D01F052F92B88184213D0204661
:1017500001F05EF92B8818420DD094F84C30042B20
:1017600009D8DFE803F0031317171300A26B214613
:10177000212001F025FF204601F020FB94F846309F
:1017800063B92046BDE83840FFF716B8A26B214682
:101790002320EEE7A26B21462220EAE738BD00BFF6
:1017A000B50601000A000010806C70478164704724
:1017B0000268F0B503461AB342685068586003F1F6
:1017C0000802904204BFD86858605868C7685868D3
:1017D00040685860824204BF506858605868C068CA
:1017E0004D1E00F1340400F1400C14F801EB15F823
:1017F000016F764502D126B16445F6D18742E6D124
:101800000020F0BD43685B68436000F1080293422A
:1018100004BFC3684360436830B5DC6800255B687B
:101820009A4208BF5368D9688C420D65F7D143606E
:1018300030BDFFFF2DE9F0410446FEF753FE484B53
:10184000484D1A68484F01321A602E68002E7BD12D
:101850002C601B68012B1CD1B84640460136FEF7B0
:10186000C7FF0A2E08F11408F7D1DFF82C813F4E8C
:101870004046FEF7BDFF3046FEF7BAFF3C48FEF794
:10188000B7FF3C48FEF7B4FF3B4BC3F800803B4B2F
:101890001E603B4A13680133236404F1340620467A
:1018A000136001F0C7F83146204601F035FAE16ACD
:1018B000204601F0B9FA324623460321012001F007
:1018C00097FB304B304E1988204601F094F801F018
:1018D0007FF901F08BF8338818420AD0204601F0D6
:1018E00085F83388184204D0E26A2146102001F0BE
:1018F00067FE204601F07AF83388184203D021466B
:10190000302001F0D9FD2149E26A086801239340A3
:10191000034314200B6000FB0270211DFEF776FFCD
:10192000FEF702FE1A4B1B6863B12B68DA6AE36AA2
:101930009A4207D2174B4FF080521A60BFF34F8F75
:10194000BFF36F8FBDE8F081114B1B68002BA0D156
:101950002B68DA6AE36A9A4298BF2C6099E700BF65
:10196000EC080010140800102008001014090010E2
:10197000340900104C090010180800101C08001051
:10198000F8080010080000100A000010FC08001001
:101990004809001004ED00E00009001008B5074CEC
:1019A000074D4FF080562368012B04D92E60BFF3FA
:1019B0004F8FBFF36F8F08F011F9F4E72008001084
:1019C00004ED00E0064A13681968064B19B94FF098
:1019D000FF321A6070471268D268D2685268F8E71E
:1019E000180800102C09001008B528B9094940F260
:1019F0000E7008F0FBF8FEE74269074B9A4207D1E8
:101A0000806A064B984203D0B0FA80F0400908BDC6
:101A10000020FCE77A0801004C090010340900108E
:101A20002DE9F047DDE909644FEA82094A46074695
:101A30000D46206BA521984609F034F8236BA9F1D7
:101A40000409994429F007099DB36B1E04F134027F
:101A50000B3513F8011F02F8011B09B1AB42F8D195
:101A6000002384F83F30089D092D28BF09254FF039
:101A7000000AE562A564201DC4F84CA0FEF7C3FE71
:101A8000C5F10A0504F11800FEF7BDFEC4F854A024
:101A90002461A5616462C4F850A084F858A042464D
:101AA00039464846FEF7F4FC206006B13460BDE8D4
:101AB000F08784F83450D6E7F8B51B4B1B4E1C68F2
:101AC0000546306804300F46FEF7C3FE334640B982
:101AD0003168174EC96A32680120884022EA000244
:101AE00032606A1C07D137B1196812480431BDE869
:101AF000F840FEF78BBE1A686419546007D30E4A8B
:101B000010681968BDE8F8400431FEF78BBE0B4A37
:101B1000106819680431FEF785FE094B1A68A24265
:101B200088BF1C60F8BD00BF6009001014080010D9
:101B3000FC0800104C0900101C08001018080010C8
:101B40002C09001070B586B0DDE90B542DB915498C
:101B500040F24D2008F04AF8FEE72CB9124940F255
:101B60004E2008F043F8FEE75C260596059E5C2EA5
:101B700005D00E4940F2562008F038F8FEE72563FC
:101B8000022584F8595004AD01950A9D02940095F0
:101B9000059EFFF745FF2046FFF74CFE049806B070
:101BA00070BD00BF590901007009010085090100DD
:101BB0002DE9F043074685B09000884616469946C1
:101BC000FEF7D2FD0546E8B15C20FEF7CDFD0446E8
:101BD000A8B1002380F859300D9B056301930C9B3D
:101BE0000290009332464B4641463846FFF718FFB5
:101BF0002046FFF71FFE012005B0BDE8F083284610
:101C0000FEF7DAFD4FF0FF30F6E7FFFFF8B50446C8
:101C100028B914494FF4AD6007F0E8FFFEE7124B16
:101C20001B68834218D0FEF75DFC104B65691F6886
:101C30000F4B1E68FEF778FCBD4211D0B5420FD0A5
:101C40000C4B9D420AD1A36A53B994F85830012B2A
:101C50000CBF02200320F8BD0020FCE70120FAE7BA
:101C60000220F8E77408010014080010180800109A
:101C70001C0800104C090010F8B5044628B9284982
:101C80004FF4E76007F0B2FFFEE7264E3368834269
:101C900045D0FEF727FC2046FFF7A6FE00283AD0E5
:101CA00000F096FF204D00F0A1FE2B88184209D0CD
:101CB000204600F09BFE2B88184203D021467C2052
:101CC00001F0FAFB271D3846FEF7C3FD204600F061
:101CD0008DFE2B88184203D02146302001F0ECFB0A
:101CE0001249E26A08680123934003430B60104BDA
:101CF000142000FB02303946FEF788FD3368E26AA3
:101D0000DB6A9A4207D30B4B4FF080521A60BFF345
:101D10004F8FBFF36F8FBDE8F840FEF705BCF8BDED
:101D2000E7080100140800100A000010FC08001069
:101D30002008001004ED00E030B589B0002407AAA7
:101D400006A905A8CDE9054407F070FF059B02939D
:101D5000069B079A1A491B48CDE900432346FFF723
:101D6000F1FE194B186048B34FF0180383F3118844
:101D7000BFF36F8FBFF34F8F144B4FF0FF321A60DA
:101D8000134A01231360134A1460134C236000F0BC
:101D90001FFF00F02BFE114B1B8818420AD0104D7C
:101DA000286800F017FF28B129682B683720DA6A05
:101DB00001F006FC02232360FEF72AFC09B030BDC7
:101DC000FF0801009D190000280900102C090010CF
:101DD0004809001060090010802200100A0000105D
:101DE00014080010024A136801331360704700BFE3
:101DF000F40800102DE9F84F484C2368012B02D05D
:101E0000474B1B681BB9474A1368013313602368AB
:101E10002BB9454B19683120013101F04DFB236886
:101E2000002B75D1404B1D6801351D60A5B93F4B96
:101E30001A6812682AB13E4940F67F2007F0D6FEA4
:101E4000FEE73C4A19681068186011603A4A136846
:101E500001331360FFF7B6FD384EDFF8F0803368CA
:101E6000AB424FF0000411D9D8F80030DA6A1423DD
:101E70005343334AD358022B28BF0124314B1B68EC
:101E8000002B0CBF20460120BDE8F88FDFF89CB086
:101E9000DFF8BCA0DBF800301B681BB94FF0FF3344
:101EA0003360E1E7DBF80030DB68DF687A68954291
:101EB00001D23260D8E707F104094846FEF7C9FCB1
:101EC000BA6A1AB107F11800FEF7C3FC384600F0F1
:101ED0008DFD1D4B1A88104203D03946302001F089
:101EE000EBFAF86ADAF80010154B012282400A4337
:101EF000CAF80020142202FB00304946FEF786FC97
:101F0000D8F80010FA6ACB6A9A4228BF0124C1E7C8
:101F1000034A1368013313600024AFE7F40800108C
:101F2000F00800108422001060090010180800104A
:101F3000D00901001C080010300900102C09001005
:101F400020080010640900100A0000101408001096
:101F5000FC0800102DE9F843354C23682BB93549AE
:101F600040F6850007F042FEFEE7FEF7BBFA236865
:101F7000013B236024682CB10024FEF7D5FA2046EB
:101F8000BDE8F8832C4B1B68002BF5D02B4DDFF8F8
:101F9000C8902B4E2BE0EB68DC6804F1180004F1CC
:101FA0000408FEF756FC4046FEF753FC204600F0BE
:101FB0001DFDB9F80030184203D02146302001F051
:101FC0007BFAE26A3168012707FA02F30B433360B8
:101FD0001C4B142000FB02304146FEF717FC1A4B45
:101FE000E26A1B68DB6A9A4201D3184B1F602B68B8
:101FF000002BD0D10CB1FFF7E5FC154D2C6844B196
:10200000124E0127FFF7F6FE00B13760013CF9D10F
:102010002C600E4B1B68002BAED00E4B4FF0805245
:102020001A60BFF34F8FBFF36F8F0124A5E700BF86
:10203000F4080010350A0100EC0800103409001003
:10204000FC0800102008001014080010640900109B
:10205000F008001004ED00E00A00001010B504467E
:1020600040B9144B4FF080521A60BFF34F8FBFF34B
:102070006F8F10BD104B1B682BB1104940F23C50C4
:1020800007F0B4FDFEE7FFF7ADFE00F0A1FD00F0A4
:10209000ADFC0B4B1B88184203D021467A2001F07F
:1020A0000BFA00212046FFF707FDFFF753FF00283A
:1020B000D7D0DEE704ED00E0F4080010AB08010023
:1020C0000A0000102DE9F041054609F0E4FE0B2856
:1020D00005D9164940F67A1007F088FDFEE7FFF7AC
:1020E00081FEDFF858800A261427013E294607FBA7
:1020F0000680FFF75DFB044690B9002EF5D10C4B2E
:102100001868FFF755FB044650B90A4B2946186872
:10211000FFF74EFB044618B90748FFF749FB044692
:10212000FFF718FF2046BDE8F08100BF9E090100BF
:10213000180800101C0800104C090010200800109E
:1021400038B5334B1A68334B12B101221A6038BDCF
:102150001A6007F077FD304A304C1568A84204D960
:1021600021680B6D5B1B03440B65236810601B6BC0
:102170001A68B2F1A53F0BD15A68B2F1A53F07D159
:102180009A68B2F1A53F03D1DB68B3F1A53F04D053
:1021900020682168343107F00BFD214B1B68B3FA2E
:1021A00083F3DBB2C3F11F0314221E495A4388187C
:1021B0008D582DB91C4940F6B73007F017FDFEE7E2
:1021C000456808326D6845600A44954204BF6A68F4
:1021D0004260142202FB0313144D5B68DB6823602A
:1021E00001232B6000F0F4FC00F000FC104B1B8876
:1021F000184209D0206800F0EDFC28B1216823685E
:102200003720DA6A01F0DCF902232B609FE700BF78
:10221000F408001064090010E80800101408001009
:10222000FC080010200800100409010080220010A2
:102230000A00001070B50446334EFEF753F904B996
:102240003468324D00F0C4FC00F0D0FB2B881842FB
:1022500009D0204600F0CAFB2B88184203D0214643
:102260007B2001F029F9251D2846FEF7F2FA60B916
:10227000E06A274B142141435B5833B925490122B9
:102280000B68824023EA02030B60A36A1BB104F1CE
:102290001800FEF7DEFA29461F48204DFEF7B6FA71
:1022A00094F85830012B04BF002384F85830FEF70F
:1022B0003BF92A682AB1FEF715F9FFF783FBFEF711
:1022C00033F93368A34212D12B688BB1144B1B68CE
:1022D0002BB1144940F2E46007F088FCFEE7124B92
:1022E0004FF080521A60BFF34F8FBFF36F8F70BDF6
:1022F000094A11680D4A1268914201D13360F6E72C
:10230000BDE87040FFF71CBF140800100A00001061
:1023100020080010FC0800104C09001048090010AB
:10232000F4080010AB08010004ED00E0EC08001018
:1023300010B50C4628B9084940F6CE3007F056FCD7
:10234000FEE7064B19681831FEF76CFA20460121AA
:10235000BDE81040FFF7B0BBC5080100140800102D
:1023600038B5C368DC682CB91C4940F6294007F031
:102370003DFCFEE704F118052846FEF76AFA184B03
:102380001B683BBB251D2846FEF763FA204600F07C
:102390002DFB144B1B88184203D02146302001F03E
:1023A0008BF81149E26A08680123934003430B60EC
:1023B0000E4B1420294600FB0230FEF727FA0C4B87
:1023C000E26A1B68DB6A9A4283BF0A4B01201860ED
:1023D000002038BD29460848EFE700BF260A010063
:1023E000F40800100A000010FC080010200800107B
:1023F000140800106409001034090010034B1B6816
:102400000360034B1B684360704700BF3009001036
:102410006009001070B50C46054628B9164940F60B
:10242000944007F0E3FBFEE729B9144940F69540D4
:1024300007F0DCFBFEE7FEF755F8114B196823683F
:102440005A1C10D00F482E6800686A68864201D076
:102450008A420FD9881A83420AD95B1A134423602F
:102460002846FFF7CBFF0024FEF75EF8204670BD3C
:10247000002323600124F7E7F50801004B09010060
:102480006009001030090010014B01221A607047EA
:102490006409001000B1406C704700B1416470479E
:1024A00070B50C461646054608B91B4A15682560E6
:1024B00005F134026260EA6A22612A6BE2612A6CE9
:1024C000A260AA6C6261052B2A6DA2611AD0124A21
:1024D0001268AA420AD100232373D6B1296B0023C4
:1024E000CA5CA52A13D09B08238470BD032B2373D9
:1024F000F3D1FFF777FCAB6A0BB102232373FFF72D
:1025000029FDEAE72846FFF781FB2073E5E7013361
:10251000E6E72684E9E700BF140800102DE9F84F2C
:102520000D6881460C46934615B34B685B684B605B
:1025300001F10806B34204BFCB684B604B68D3F887
:102540000C8000254FF0240A63685B6863609E423C
:1025500004BF736863606368DF680AFB05915B46CC
:1025600001223846FFF79CFFB84505F10105EBD184
:102570002846BDE8F88FFFFF2DE9F0470546904655
:10258000FFF730FC1D4B1B688B4234D8DFF87C9082
:102590000A2700244FF0140A2426013F06FB0450AA
:1025A00001220AFB0791FFF7B9FF0444002FF4D181
:1025B000134B0222196806FB0450FFF7AFFF114BC3
:1025C00004441968022206FB0450FFF7A7FF0444E5
:1025D00006FB045003220C49FFF7A0FF0444B8F1A6
:1025E000000F03D007F02EFBC8F80000FFF7B2FC85
:1025F0002046BDE8F0870024F8E700BFEC08001093
:10260000180800101C0800104C09001020080010C9
:1026100008B9064B1868026B0020135CA52B02D08A
:10262000C0F38F0070470130F7E700BF14080010B7
:10263000014B1868704700BF14080010054B1B6859
:1026400033B1054B1B68002B0CBF022000207047E4
:102650000120704748090010F40800102DE9F047E8
:102660000446002850D0364AC36A1168C96A8B42B2
:1026700016465CD28269334D334F002AA1BF3268BF
:10268000D26AC2F10A0282614FF0140A42690AFB5F
:1026900003539A423AD100F104084046FEF7D9F8B4
:1026A000DFF8A89068B9E16A0AFB01FA55F80A3028
:1026B0003BB9D9F8003001228A4023EA0203C9F865
:1026C00000303368DB6AE362204600F08FF93B8814
:1026D000184203D02146302000F0EEFEE26AD9F81D
:1026E00000100123934014200B4300FB025041468D
:1026F000C9F80030FEF78AF800F06AFA00F076F9BF
:102700003B88184206D10120BDE8F0873368DB6AB8
:10271000C362F1E7204600F069F93B881842F2D025
:1027200033682146DA6A052000F04AFFEBE71368B8
:10273000806CDC6AA0422CBF00200120E4E700BFCF
:1027400014080010200800100A000010FC080010F7
:102750002DE9F041044610B90020BDE8F0812F4B6F
:102760001B68834205D02E4940F6D17007F03EFA2F
:10277000FEE7DB6C2BB92B4940F6D27007F036FA36
:10278000FEE7C16A826C013B9142C364E4D0002B36
:10279000E2D100F104084046FEF75BF8224F234ED9
:1027A00050B9E06A142141437B582BB933680122A8
:1027B000824023EA0203336000F00AFA1C4D00F065
:1027C00015F92B8818420AD0204600F00FF92B8803
:1027D000184204D0A26C2146062000F0F1FEA36C42
:1027E000E362C3F10A03A361204600F0FFF82B88DF
:1027F000184203D02146302000F05EFEE26A3168C4
:10280000012404FA02F314200B4300FB027041463A
:102810003360FDF7FBFF20469FE700BF1408001060
:10282000FB090100110A010020080010FC0800103B
:102830000A0000102DE9F8430446002869D0C36C53
:102840002BB935494FF4815007F0D0F9FEE7826C7F
:10285000914238BF1146C26A8A420D4659D0012BB7
:1028600057D12E4B1B68834205D12D4941F23B00C5
:1028700007F0BCF9FEE700F0ABF92A4E00F0B6F81D
:10288000338818420AD0204600F0B0F83388184246
:1028900004D0A26C2146062000F092FEA269E36AF1
:1028A000E562002AA4BFC5F10A05A5611E4D626953
:1028B0004FF0140909FB03539A422AD104F104088A
:1028C0004046FDF7C6FF194F58B9E16A09FB01F907
:1028D00055F809302BB93B6801228A4023EA0203EC
:1028E0003B60204600F082F83388184203D021462E
:1028F000302000F0E1FDE26A3968012393400B4388
:1029000014203B60414600FB0250BDE8F843FDF750
:102910007DBFBDE8F88300BF110A01001408001054
:10292000D10801000A00001020080010FC08001067
:10293000044B1A681AB11968CA6C0132CA64186863
:10294000704700BF1408001070B5FFF74BFA144D24
:102950000A241426013C06FB04F3E818EB580BB1DB
:10296000FEF750FF002CF5D10E4B1A68126812B119
:102970001868FEF747FF0C4B1A68126812B1186806
:10298000FEF740FF094803680BB1FEF73BFF084B19
:1029900000221A6007F060F9BDE87040FFF7DABA6C
:1029A00020080010180800101C0800104C09001026
:1029B000E808001010B507F045F9064B064A1968FB
:1029C00029B1196814680B6D1B1B03440B6510605B
:1029D00010BD00BF14080010E808001008B507F08B
:1029E00031F9014B186008BDE808001008B5FFF781
:1029F00051FD000C08BD38B504460D46FFF74AFDF1
:102A000080B240EA05412046BDE83840FFF745BDA9
:102A100008B5FEF7C9FE000C08BD38B504460D46E2
:102A2000FEF7C2FE80B240EA05412046BDE83840CC
:102A3000FEF7BCBE0A4A002352F8331039B942F8F7
:102A4000330002EBC3034FF0FF325A60704701338B
:102A50000A2BF1D1034A136801331360704700BF9A
:102A6000940C0010E40C00102DE9F041124C134FAF
:102A70002668B846236857F8330080B1FFF7C8FDD1
:102A80002168CB00FA184344556858F83110854244
:102A900088BF50605A68EA2000F092FD0120236848
:102AA0000A215A1C92FBF1F301FB1323236008B99E
:102AB000B342DFD1BDE8F0816C090010940C001026
:102AC000F8B51B4C1B4D1C4E00F05EFC0746002861
:102AD000FAD100F01BF938B32368002B03DD0E2078
:102AE00000F01EFB27602B6823B1072000F018FBC5
:102AF00000232B60336823B1092000F011FB002371
:102B000033600E4F3B680C2B04D9082000F008FB03
:102B100000233B600A4F3B6823B10A2000F000FB12
:102B200000233B60FFF7A0FF0A20FFF797FACBE7EF
:102B3000E40C0010981F0010941F00108C1F001050
:102B4000901F001070B5184D2E6886B00446AEB9BF
:102B5000164800F070FA164B16491860164B02938F
:102B6000164B019301230093C82233461448FEF705
:102B7000E9FF286010B9052000F072FC022C03D197
:102B8000104B1B685BB9FEE7012C0AD100F07AFDFF
:102B900040F2011304A8ADF8103000F059FC06B063
:102BA00070BD00F06FFDFAE7680900104A0A0100E5
:102BB0007C7C00104F0A0100E80C00107409001022
:102BC000C12A00009C1F001000F028BA00F026BAAD
:102BD000FFF72EBD034B1A6882421ABF186001200E
:102BE000002070477009001008B5FFF727FDB0FA04
:102BF00080F0400908BDFFFF10B5014604460A22D7
:102C0000074803F0FFFA40B9054803F070FD054896
:102C10002146BDE8104008F06BBF21460248F8E7A6
:102C20004C1D0010740A0100A10A01002DE9F74FA4
:102C30001D4CDFF880A02568C5F580568E4228BF60
:102C40000E46002381460F469346A1EB0608324606
:102C500001460AEB0500019307F0FCFEAA19B2F544
:102C6000805F22600ED301AB5146104803F06EFC2A
:102C700010B90E4803F03BFD0D4A13680133136091
:102C800000232360B8F1000F08D0424609EB06018B
:102C9000084807F0DFFE2368434423600020CBF898
:102CA000007003B0BDE8F08F440D00104C1D001003
:102CB000481D0010480D001008B5044808F0B2FF88
:102CC0000348BDE8084003F063BD00BF560A010099
:102CD0004C1D0010013010B505230B4C90FBF3F296
:102CE00002EB8202801A062134F830201AB1013931
:102CF00002D14FF0FF3010BD013090FBF3F202EB38
:102D00008202801AF0E700BF807C0010014B186837
:102D1000704700BF9C1F001070B5EFF310860123B1
:102D200083F31088134D2A68B2F5C07F1DD2124B71
:102D3000940843F82400101D18440023CC5CC454AC
:102D400014B101330C2BF9D1C85C40B90B490868A8
:102D5000834208D810322A6086F3108870BD802B19
:102D6000F4D00133F0E70B60F4E7054A1368013350
:102D70001360F1E7B01F0010F82000108C1F001046
:102D8000981F001038B50146EFF31085012383F337
:102D90001088084B1B68B3F5C07F08D2064C1C4452
:102DA0002046FFF7B9FF85F31088204638BD002480
:102DB000F9E700BFB01F0010F8200010F0B5EFF3E6
:102DC0001087012383F31088154E164934680022BA
:102DD00094421BD9930851F82350A8421DD1102CBE
:102DE000A4F1100015D9824213D0850801EB8502A9
:102DF000141F01EB83030C3254F804CF43F804CBC7
:102E00009442F9D1002341F82530306087F31088CF
:102E1000F0BD002241F82320F7E71032D8E700BFC9
:102E2000B01F0010F8200010F0B5EFF31087012359
:102E300083F31088114C124A25680023AB4211D34A
:102E40002B46B3F5A07F14D29A080D4E46F8220007
:102E50000132AB4246F8221001D10833236087F3D8
:102E60001088F0BD9E0852F82660B042E9D00833C1
:102E7000E4E7044A136801331360F0E7AC1F001065
:102E8000B81F0010941F00102DE9F041204C05469A
:102E90002068431CA0460BD1FFF71CFF20600130C7
:102EA00006D11C4A1368013313600020BDE8F0818D
:102EB000D8F80000184C194F194E04EBC002518885
:102EC0004A1B002A10DA3B6832685B1A4FF0020C8A
:102ED000934224F830C038BF33603B60FFF7FAFEFE
:102EE000C8F800000130DCD0D8F8003004EBC30390
:102EF000586842195A605A88521B5A803B68ADB2D2
:102F00005D1B33683D609D4238BF3560CEE700BF32
:102F10001C000010741F0010807C001014000010B2
:102F2000180000102DE9F74F1C1D48BFDC1D00EBF9
:102F3000A4040F2C814616461D460D9F4FEA8008BB
:102F400009DD274B0F3C1A68A400A24238BF1C6061
:102F5000C8F13C050F24EFF3108A012383F3108896
:102F6000204B1B6833B3204A01911368A01C03F166
:102F7000010B8000C2F800B0FFF786FFD0B10199C5
:102F80001A4BA0F802B041EA04311B68018043608B
:102F900000F1080100234B4511DB08F10803184438
:102FA00000239D4215DCC8F13C03AB42C2BF414443
:102FB00000234B558AF3108803B0BDE8F08F1EB193
:102FC00013B986600133E6E757F8042B41F8232054
:102FD000F8E70C9AD25C00F8012B0133E1E700BF5F
:102FE000901F00109C1F0010A81F0010041000E08C
:102FF0000CB41FB5069A0023D45C0CB1342B0BD152
:1030000007ACCDE9002400220394FFF78BFF04B046
:10301000BDE8104002B070470133EDE770B50546DA
:103020000C46FFF779FE2B46224603210120BDE81E
:103030007040FFF7DDBF38B50546FFF7A3FE2A460F
:103040000446034603210120FFF7D2FF204638BD86
:1030500073B50D460646FFF795FE29460446FFF771
:10306000E3FE00950346324607210220FFF7C0FF2A
:10307000204602B070BDFFFF2DE9F84F0646884696
:10308000154600242B5D0BB1342C3AD1B8F1000F5A
:1030900039D00136B6B20127EFF31089012383F34B
:1030A00010881C4B1B6843B31B4A04F1040A1368C5
:1030B00007EBAA0A0AF1020003F1010B8000C2F833
:1030C00000B0FFF7E1FEC0B1144BA0F802B046EA31
:1030D0000A361B6806804360B8F1000F01D0C0F8C3
:1030E0000880BF00F91D00F108032A460844291989
:1030F0008A420AD11C440023E35589F31088BDE8B5
:10310000F88F0134BEE74746C6E712F8015B00F8C6
:10311000015FEDE79C1F0010A81F0010041000E0E5
:1031200010B40C4C013801232168834013EA0102DA
:103130000DD10B432360084B5DF8044B19680D2833
:103140009CBF064B53F820209020FFF795BF5DF8F9
:10315000044B7047781F00107C7C0010D80A0100D7
:103160000C4B30B51860EFF31081012282F3108808
:103170001B68094A03F570504FF440650024536002
:1031800003F540638342558022F8084BF7D181F361
:10319000108830BD7C1F0010807C00102DE9F047A6
:1031A000654E33688342074600F0BE80EFF3108817
:1031B000012585F31088002800F0BB805F48604C33
:1031C000FFF71AFD5F48FFF7CBFF002323605E4B3C
:1031D000FF221A70EFF3108985F310881820FFF78B
:1031E00053FE0028FAD05949594BDFF88CC1C0E989
:1031F0000013584B1B68C360574B00258560C0E91E
:1032000004C389F31088EFF3108A012383F3108835
:10321000DFF868911020FFF737FE0028FAD0031F6F
:103220004A460C3052F8041B43F8041F9842F9D167
:103230000435602D09F11009ECD18AF31088EFF301
:10324000108A012383F31088444D4FF000090820B1
:10325000FFF71AFE0028FAD02B68036009F1020973
:103260006B684360B9F1500F05F10805EFD18AF39F
:103270001088EFF31085012383F310880420FFF7F3
:1032800003FE0028FAD0364B1B68036085F31088D4
:10329000EFF31089012383F31088324B1B68002B56
:1032A00044D0FFF795FC824625680135256014203F
:1032B000FFF7EAFD0028FAD045802B4D2B4A43F258
:1032C000010303802B684360294B1B68C0E9023A65
:1032D00013680361591C116089F31088254B1A6823
:1032E0009A461AB9FCF7A0FFCAF80000236803F158
:1032F0000109C4F800901820FFF7C6FD0028FAD095
:1033000044F2020303802B684360DAF800308360E4
:103310004FF47A720123C0E903230023A0F802903E
:103320004361376088F31088BDE8F0874FF0020AE8
:10333000BAE7FFF7C1FCF4E79C1F0010100B010077
:10334000A81F00107C4000100C00001000465350D5
:103350000600A11A7C22001008002800B81F0010E7
:103360000E00001080220010041000E0A01F0010CA
:10337000842200107822001010001800F82000109D
:103380000020FFF70BBFFFFF2DE9F3472C4D95F908
:103390000040002301340193052294FBF2F303EB78
:1033A0008303E41A274B64B20620994633F834109D
:1033B000022910D0013802D102B0BDE8F0870134F3
:1033C00094FBF2F101EB8101641A64B2EEE7FFF7BE
:1033D000D7FF0020F0E7E7003B44002C5E882C700C
:1033E000C6F54066F5DB4FF44068DFF860A008FBE7
:1033F00004F80025DAF8003008EB050001AA711B7B
:103400001844FFF713FC0028E1D1019B1D44B5428D
:10341000F0D1EFF31081012383F31088DAF8003044
:10342000094A4F4443447B604FF0406349F83430CD
:10343000136803F54063136081F310882846BBE7E7
:1034400020000010807C0010140000107C1F001071
:103450000378012B02D14078FFF7A0BE7047FFFF31
:10346000104B1A6810B5E2B90F4918600C680138A2
:103470000123834023430D280B600C4C98BF0C4B59
:10348000216898BF53F820209020FFF7F5FD2168B0
:10349000084A9020FFF7F0FD0020BDE81040FFF73C
:1034A0007DBE10BDA41F0010781F00107C7C001092
:1034B000D80A01001A0B0100B0F5805FF8B5054687
:1034C0000F4604D30120BDE8F840FFF7C9BFEFF372
:1034D0001086012383F310880A4B1B687BB10A4BCB
:1034E0001C680C2001341C60FFF7CEFC38B1074B80
:1034F00044801B68C0E9013745F48055058086F398
:103500001088F8BD9C1F0010A81F0010041000E0D8
:1035100010B5EFF31084012383F31088104B1A6861
:103520001043104A186092F90030002B03F1FF336A
:103530000ADDDBB213700C4A52F823103420FFF777
:10354000BBFF84F3108810BD137020B9FFF740FB58
:1035500001463620F3E7FFF747FB0028F6D1F0E7F6
:10356000B41F00100C000010801F001038B5014679
:10357000EFF31084012383F310880E4A92F9003090
:10358000581C0ED10C480025056001335BB2137046
:103590000A4A332042F82310FFF78EFF84F3108885
:1035A00038BD012BF1DD84F310880220BDE83840DE
:1035B000FFF756BF0C000010B41F0010801F001052
:1035C000B0F5805F2DE9F04105468846174604D3E3
:1035D0000120BDE8F041FFF743BFEFF31086012360
:1035E00083F310880B4B1B6883B10B4B1C681020B6
:1035F00001341C60FFF748FC40B1084B44801B6855
:10360000C760C0E9013845F40055058086F310888D
:10361000BDE8F0819C1F0010A81F0010041000E0FE
:10362000B0F5805F2DE9F8430546884691461F4670
:1036300004D30120BDE8F843FFF712BFEFF3108673
:10364000012383F310880C4B1B688BB10B48046873
:10365000013404601420FFF717FC48B1084B448084
:103660001B68C0E90397C0E9013845F4405505805F
:1036700086F31088BDE8F8839C1F0010A81F001077
:10368000041000E00E4B0F4A1A6003F54E434C3312
:103690001A6842F080721A601B6813B90320FFF7A2
:1036A000DFBE094A136813F0007301D00420F6E767
:1036B00006490B60136843F001031360704700BFB5
:1036C000B01F00E055CEACC5001000E0041000E0D3
:1036D00038B50D46044658B103290BD90A460021D6
:1036E00007F0E0F923462A0A03F8022B65701C460E
:1036F000204638BD0024FBE710F8023C10F8010C0E
:1037000040EA0320033880B2704708B5FFF7F4FFA2
:10371000013080B208BD08B510B108F0BCFB80B222
:1037200008BD10B50446FFF7F6FF02462046FFF736
:10373000E3FF824234BF0020012010BD07F0C6B86D
:1037400000230370704710B50446FFF7DEFF1346F1
:103750000A460146204609F0E5FA20EAE07080B208
:1037600010BD0EB403B503AA52F8041B0192FFF773
:10377000EAFF02B05DF804EB03B070470EB403B586
:1037800003AA52F8041B019209F0FEFA0028CCBFEC
:1037900080B2002002B05DF804EB03B0704738B58A
:1037A00005460C46084671B108F075FB01462846EF
:1037B000FFF7A2FF89B28142024605D8214628467A
:1037C00008F0A6FB012038BD0020FCE738B51546FF
:1037D000FFF77EFF044610B12946FFF7E0FF2046C1
:1037E00038BD2DE9F04105460F4614460AB3FFF7F0
:1037F00092FFB84206461CD3204608F04CFB321814
:103800008046284692B2FFF777FF824211D8C7F16F
:1038100001023D44324492B2294605EB080007F00C
:1038200027F942462146284608F072FB0120BDE8F0
:10383000F0810020FBE770B506460C46A9B1FFF702
:103840006AFF0546204608F026FB82B2A9183046DA
:1038500089B2FFF751FF884207D3013292B2214665
:10386000701907F0F7F8012070BD0020FCE707B5DC
:1038700000238DF8041001A98DF80530FFF7DBFF58
:1038800003B05DF804FB08B529B108F0CBFAB0FA33
:1038900080F0400908BD0846FCE770B506461546AD
:1038A0000C4661B1FFF737FFA84208D32A462146EC
:1038B000304608F01BFBB0FA80F0400970BD0020D4
:1038C000FCE770B505460C4681B1FFF724FF0646BC
:1038D000204608F0E0FA8642024607D321462846F1
:1038E00008F0E2FAB0FA80F0400970BD0020FCE771
:1038F0002DE9F041074614460D46C9B1C2B1FFF7A4
:103900000AFF8046284608F0C6FA804506460FD3CF
:1039100002462946384608F0E9FA48B9B85D2378E6
:1039200083421ABFB0FA80F040090120BDE8F0815F
:103930000020FBE710B50446FFF7EDFE40B101386B
:1039400080B2205C0D2804D0A0F10A0358425841EF
:1039500010BD0120FCE770B50C4605461646FFF782
:10396000DAFEA04211D9011BB142C4F101030A469B
:103970001844A8BF3246801A14FA82F1294482B250
:10398000281907F075F8012070BD0020FCE70A46F1
:103990000021FFF7E0BF38B50C460546FFF7BBFE38
:1039A000A04224BF001B81B22246284638BF002116
:1039B000BDE83840FFF7CFBF10B5044608F0BBFAAA
:1039C000031E1FBF1B1B9BB2002201200CBF002047
:1039D000E25410BD10B5044608F050FA38B1011B8E
:1039E0000131204689B2BDE81040FFF7D0BF10BDBD
:1039F00070B50646054611480C462B4613F8011BC8
:103A0000C9B10A5C520714D524B1284606F05EFFFE
:103A100020600124094A294615F8013B13B19B5C3B
:103A20005B07F8D4891B89B23046FFF7B0FF204608
:103A300070BD1D46E1E70C46ECE700BF85210100A3
:103A4000F8B506460C46C9B1FFF765FE05462046A7
:103A500008F021FA6B1E33442044013E0021B3429A
:103A600002D02246824201D1012008E012F8015B17
:103A70001F78AF42F6D103F80119F0E70846F8BD08
:103A800038B501220221002000F0C3F801220321F1
:103A9000002000F0BEF804220021012000F0B9F857
:103AA00001210422084600F0B4F804221146012046
:103AB00000F0AFF80821012000F01AF9284B4FF46C
:103AC00080729A610921012000F0EEF802220A2199
:103AD000002000F09EF802220B210546002000F095
:103AE00098F80446284600F0A9F8204600F0A6F809
:103AF0000321022000F0FCF81A4B1B4D18701A210C
:103B0000012000F0F5F8194B194C1870182101200C
:103B100000F0EEF8174B12211870012000F0E8F8C1
:103B2000154B13211870012000F0BEF80F212870EA
:103B3000012000F0B9F81E212070002000F0B4F838
:103B40000E4B1D211870002000F0AEF80C4B1870C1
:103B5000287800F083F82078BDE8384000F07EB87F
:103B600020800920882200108C2200108922001059
:103B70008D2200108A2200108B2200108E2200104D
:103B80008F220010024B4FF48072DA61704700BF41
:103B900020800920024B4FF480729A61704700BF69
:103BA00020800920034B586980F40070C0F3402046
:103BB000704700BF20800920014B1878704700BF74
:103BC00088220010014B1878704700BF892200102E
:103BD000014B1878704700BF8A220010014B1878FB
:103BE000704700BF8B220010C0F3C40300F007022F
:103BF0009B0003EBC21303F1804303F5303301F064
:103C000007011A6822F007021A601A681143196046
:103C1000704738B500F007054FF0000001F01F04B1
:103C200065F3020064F3C7001146FFF7DDFF4FF0B4
:103C3000000065F3020064F3C70038BDC0F3C4039D
:103C400000F007029B0003EBC21303F1804303F56E
:103C500030331A6842F480621A607047C0F3C403BC
:103C600000F007029B0003EBC21303F1804303F54E
:103C700030331A6822F018021A601A6842F00802FB
:103C80001A60704700F00702064B53F82210C0F389
:103C9000C4000B68012202FA00F023EA00030B6063
:103CA000704700BF9C0D010038B500F007054FF0CC
:103CB000000001F01F0465F3020064F3C700FFF782
:103CC000E1FF4FF0000065F3020064F3C70038BD68
:103CD00000F00702054B53F82220C0F3C40311681B
:103CE0000120984008431060704700BF9C0D010000
:103CF00038B500F007054FF0000001F01F0465F330
:103D0000020064F3C700FFF7E3FF4FF0000065F324
:103D1000020064F3C70038BD00F00702064B53F8F9
:103D20002230C0F3C4005A69012303FA00F01042A4
:103D300014BF1846002070479C0D010000F00702D8
:103D4000044BC0F3C40053F82220012303FA00F00F
:103D5000906170479C0D010000F00702044BC0F316
:103D6000C40053F82220012303FA00F0D061704709
:103D70009C0D010008B50146FFF7CEFF20B10846B3
:103D8000BDE80840FFF7E8BF0846BDE80840FFF778
:103D9000D5BFFFFF2DE9F8430F4F0C2444433E19D4
:103DA000884635792846914600F06AFA3C59002346
:103DB0003F2263604946A360284622606361B2687F
:103DC000A361E3612362636200F07EFA0123C4F819
:103DD0000C806360BDE8F883B40D01000C235843E8
:103DE000064B1B5830B501205C6901EB4105A8402A
:103DF00020435861183343F8212030BDB40D010031
:103E00000C235843034B1A58012303FA01F11160A4
:103E1000704700BFB40D01000C235843014B1B58E1
:103E200098687047B40D01000C235843014B1B5890
:103E300099607047B40D01002DE9F0410446174622
:103E40001E468846FEF7FAFB00210546A068FDF7EE
:103E50005DFA00232374069BA361079BE36123683B
:103E600084F811802022022DA77466611A600BD19C
:103E700040F6B831A068FDF749FA18B1207CB0FAD5
:103E800080F04009BDE8F0810021A068FDF73EFA0E
:103E90000028F9D0F2E7FFFF37B504686368502BBC
:103EA000054600F09F801FD8182B5ED00FD8082B36
:103EB0004ED0102B51D063682B742023A3611023A4
:103EC00023600823A3612368DB06FCD459E0382B68
:103ED00000F09780402B7CD0282BECD1437CD80776
:103EE00063D5202323603CE0A02B00F0A18016D8EE
:103EF000602B00F08980802B00F08E80582BDAD167
:103F00004369A2681A700023C3612023A3611023B0
:103F100023600823A3612368DA06FCD431E0B82BC0
:103F200000F09580C02B00F08380A82BC3D190F8BF
:103F30002100431C85F8223005F1230103F09CFF8A
:103F40000423002800F0868095F82320A260C9E7AA
:103F5000427C02F0FE02A26004E0437C43F00103D5
:103F6000A3600823A36103B030BDC1692022A26110
:103F70000823C1B9A26110222260A3612368DB0675
:103F8000FCD4002301A9A8680193FDF791F8019BD7
:103F9000002BE8D0304B4FF080521A60BFF34F8FA8
:103FA000BFF36F8FDFE7827CD5E7EB694BB9202346
:103FB000A361102323600823A3612368D906FCD4DE
:103FC000DFE7AA69013B12F8011BA160AA61EB615E
:103FD000C7E72023A361C369012B4FF0040381D8F5
:103FE000A361BEE74369A2681A7043690133436164
:103FF000C369013B012BC3614FF004037FF472AF2F
:10400000EEE763680374BCE7042323600823A3611D
:10401000002380F82030A6E790F8203053B9A36839
:1040200080F82230A36880F82130012380F8203006
:10403000042357E790F82200A168431C85F822303A
:10404000C9B203F021FF04230028C9D04AE790F841
:1040500022006EE7A060C3E704ED00E00148FFF72F
:104060001BBF00BF6C0000100148FFF715BF00BF69
:10407000480000100148FFF70FBF00BF24000010E8
:104080002DE9F043284B06461546894693E807007C
:1040900085B004AB03E9070040F60A33ADF8003001
:1040A0000C238DF8023024237343204AD458D718A8
:1040B00004AB334403220021012013F8108CFCF7D9
:1040C00027FDB8600120FCF7B6FE1949F860FEF73D
:1040D0007DFD404600F0D4F86C23A361154A164BD1
:1040E000914588BF99462823B5FBF9F25208C821AB
:1040F0005343B3FBF1F323613C235A430023B2FB48
:10410000F1F26261A36263622362E3604023236091
:1041100004AB03EB86067A6856F80C1C404605B0E3
:10412000BDE8F04300F0D0B8FC0D01002400001001
:10413000080E010040420F00A08601002DE9F34166
:104140000F4690461D4623B90025284602B0BDE81B
:10415000F0810F4C242303FB00444FF0FF31E06853
:10416000FDF7D4F80028EFD00026089B01934246C3
:104170002B4647F0010100962046FFF75DFE3346CF
:10418000054632463146E068FCF70EFDDDE700BF2C
:10419000240000101FB500238DF80F300123009379
:1041A0000DF10F03FFF7CAFF9DF80F0005B05DF892
:1041B00004FBFFFFF7B50E4617461D461BB9002549
:1041C000284603B0F0BD0E4C242303FB00444FF0FF
:1041D000FF31E068FDF79AF80028F0D0089B3A46D6
:1041E000CDE9005306F0FE0100232046FFF724FE30
:1041F000002305461A461946E068FCF7D5FCDFE7C0
:10420000240000101FB5002200920DF10F038DF85D
:104210000F20FFF7CFFF05B05DF804FB1FB58DF849
:104220000F30012300930DF10F03FFF7C3FF05B01B
:104230005DF804FBFEE7FFFF10B5FEF7BBFB0C4B80
:104240000C4A1B78103BDBB252F823400A4A52F862
:104250002300FFF78BF9A0470020FFF759F9074B20
:1042600000221A601B68BDE81040FEF7B7BB00BF14
:1042700004ED00E0900000109022001034230010A4
:10428000592809D8054B064A185CD2F8C4100123F6
:1042900083400B43C2F8C430704700BF210E0100B9
:1042A00000C00F4059289FBF054B064AD3F8C430C1
:1042B000105C9ABF23FA00F000F001000020704764
:1042C00000C00F40210E010010B50D4B592814BF3E
:1042D00004461924104643F824100021FEF7B8FEC6
:1042E000084B43F8240063B2002B08DB012204F0E2
:1042F0001F0402FA04F45B09034A42F8234010BD8C
:10430000900000109022001000E100E073B54FF023
:10431000FF33B1F5805F019336D21D4C2369DE0770
:1043200034D41C4B1D69ED0730D41B4D0326AE6001
:104330002E611A4D1D6002B301AE5E6041F0004671
:10434000DE6041F20F061E61DAB1206041F080614B
:1043500040F68112E16065602261114A516A41F0C4
:1043600003015162D868C0F30B000028FAD1536AE8
:1043700023F00303536202B070BD586041F0084659
:10438000DEE701AA2260E3E70120F4E70220F2E77A
:1043900000010820200108200000082008C00A4071
:1043A00000C00A4010B50446FBF73EFF4FF47A7395
:1043B000B0FBF3F00223B0FBF3F2A24202D8034AAF
:1043C000136110BD0233DBB2F5E700BF00C00A4045
:1043D00010B504462420FFF753FF0B4B07221A6049
:1043E00002225A602046FFF7DDFF1A20FFF748FF40
:1043F000064B01221A631A6BD207FCD5044A00232C
:10440000936042F8183C10BD00C00A40000008202C
:1044100020010820034B9860DA68D206FCD4986823
:10442000C0B2704700C00A400122FFF76FBF0022F0
:10443000FFF76CBF02689368C3F34203022B73B5A6
:10444000064623D0062B21D0012B34D100248DF831
:1044500003400194102501AA0DF10301B068FDF796
:10446000CFF848B133689DF803201A70019B002BE8
:1044700018BF0124013DEED10CB3124B4FF0805216
:104480001A60BFF34F8FBFF36F8F18E000240194C1
:1044900033681A7DD207EFD51B788DF8033001AA57
:1044A00000230DF10301F068FCF7D8FC019B002B01
:1044B00018BF0124ECE7137DDBB20193019B02B02E
:1044C00070BD00BF04ED00E00148FFF7B3BF00BFBF
:1044D000640100100148FFF7ADBF00BF5401001098
:1044E0000148FFF7A7BF00BF440100100148FFF7D4
:1044F000A1BF00BF34010010134B70B5164605462E
:10450000185C0C463601FFF7BBFEB4FBF6F307EE72
:10451000903AF8EE677AB6EE007A77EE877A2D0158
:10452000FCEEE77A094A17EE903A52599BB2802185
:104530001173190ADBB211711370102382F828303D
:104540000723137370BD00BFA40E010034010010D7
:10455000074B10B50446185CFFF7A4FE30B12401E8
:10456000044B1B59187B003018BF012010BD00BF41
:10457000A40E010034010010034B03EB001080680F
:10458000003018BF01207047340100102DE9F743B7
:10459000054689469046FFF7DBFF074620B900270E
:1045A000384603B0BDE8F083264C2E01A319DA6823
:1045B000B2B9B9F1000F13D0C3F80C9055238DF8A0
:1045C000003005F130038DF8013045F65203ADF8A7
:1045D0000230694651234846ADF80430FEF7F4FA3C
:1045E000A3199A68B2B9B8F1000F13D0C3F80880C4
:1045F00055238DF8003005F130038DF8013045F674
:104600005403ADF80230694651234046ADF80430FA
:10461000FEF7DAFAA319DA68002AC0D09A68002AED
:10462000BDD05A68084B53F82510084B585DFFF76A
:104630004BFEA35941221A7206221A7207225A60AF
:10464000AEE700BF34010010940E0100A40E01007B
:1046500038B5074A03010D46D458FFF779FF30B14A
:10466000237D9A06FCD52570237D9B06FCD538BD9D
:104670003401001070B504460E461546FDF7DEFF06
:104680000E4B03EB0413DC68B4B1022814D16B1C8D
:1046900009D04FF47A70A5FB00014FF47A72002321
:1046A00005F092FF05462A4631462046FCF704FDF8
:1046B000003018BF012070BD0020FCE7340100105D
:1046C0002DE9F84305460E46114CFDF7B7FF2F01C3
:1046D000E31981462846D3F80C80FFF739FF98B1DB
:1046E000B9F1020F0AD1B8F1000F07D031462846C0
:1046F0004FF0FF32BDE8F843FFF7BCBFE3591A7D26
:10470000D207FCD51B7833700020BDE8F88300BFCA
:1047100034010010F7B505461C4E8DF807102D0129
:104720001746FDF78BFF73199C6854B302282BD1F1
:10473000791C09D04FF47A70A7FB00014FF47A720C
:10474000002305F041FF074600233A460DF107011B
:104750002046FCF729FA041C18BF0124FBF7C2FE0F
:10476000731975592A7D520609D500220DF10701EA
:104770009868FCF745FF10B19DF807302B70FBF7E8
:10478000D3FE204603B0F0BD0024FAE73401001048
:104790002DE9F84F06461446884610461B49DFF8B7
:1047A0007C90DFF87CA0DFF87CB0FEF7DAFFB3681E
:1047B00021464046984735680DB9BDE8F88F6F68C7
:1047C000384607F068FB32288CBF514649463B46C5
:1047D0002A682046FEF7C5FF59462046FFF7ECF849
:1047E0000B4907462046FFF7E7F807B918B1094912
:1047F0002046FFF720F808492046FFF71CF8B36869
:10480000214640469847ED68D6E700BFA80E010054
:10481000EF0E010079100100EE0E0100040F0100FF
:10482000F10E0100100F010030B504294FF0000512
:1048300038BF04210560C0E90112C36030BD11B169
:104840000368CB60016070472DE9F04114460546CE
:104850000F4610464249FFF7F3F842492046FFF75A
:1048600030F8002833D03F492046FFF70CF828B134
:10487000224639462846FFF78BFF68E02021204674
:10488000FFF7A8F8DFF8F0802E680EB92E6810E068
:10489000424631682046FFF72BF8002838D1F668E9
:1048A000F3E76A6831682046FEF7F7FF00282FD14A
:1048B000F668002EF5D131462B4A2046FEF791FFCF
:1048C000AB68214638469847AB6825493DE02E68DD
:1048D000DFF8A4800EB92E680EE04246316820460B
:1048E000FFF706F8B8B9F668F4E76A683168204659
:1048F000FEF7D3FF78B9F668002EF6D131461B4A91
:104900002046FEF76EFFAB68214638469847AFE772
:10491000AB687168D6E720212046FFF75BF8B368E3
:10492000AA6821463846984788B1114A0021204696
:10493000FEF757FFAB682146384698470D49726825
:104940002046FEF70EFFAB68214638469847E968D7
:1049500021B1AB683846BDE8F0411847BDE8F081A9
:10496000EE0E0100120F0100450F01006E0F010055
:10497000170F0100280F01006D1E010010B54C1E1D
:1049800014F8010F00B910BD07F0CAF8F8E7FFFFEF
:1049900070B5A0B006461B4A80216846FEF716FF98
:1049A0000446304622460021FFF74EFF2046FEF720
:1049B000C7FE2046FEF7BEFF0028F2D106F00AF837
:1049C000C5B2082D16D12046FEF7A5FE60B1012123
:1049D0002046FEF7E0FF284607F0A2F8202007F067
:1049E0009FF8284607F09CF82046FEF79AFE00281C
:1049F000DFD0D6E7284607F093F829462046FEF791
:104A000036FFF1E7120F010030B589B004AD28463A
:104A1000184B194A194C0421FFF706FF95E80F00BF
:104A200084E80F0020461649FFF709FF2046154984
:104A3000FFF705FF20461449FFF701FF2046134901
:104A4000FFF7FDFE20461249FFF7F9FE2046114907
:104A5000FFF7F5FE104B0293104B019303230093D5
:104A60004FF4007223460E490E48FDF76BF809B06B
:104A700030BD00BF9F0F01007D49000038230010AA
:104A800094010010A4010010C4010010B401001032
:104A90008401001074010010482B001048230010FE
:104AA000F20F0100914900002DE9F043E7B00DF14C
:104AB00098084FF4807281460E464046002105F06A
:104AC000F1FF802106A8FEF703FE05AF01233B603E
:104AD00005460024009704AB03AA20494846CDE9C7
:104AE0000344FEF74BFE012831D93B6800939DF843
:104AF00010209DF80C1043460220FFF71FFB814653
:104B0000E8B1039A1649DFF864902846FEF729FEBB
:104B100029462046B0473B68A34202D867B0BDE8AB
:104B2000F083049A18F8043000932244494628463A
:104B3000FEF717FE29460020B0470134EBE709498C
:104B40002846FEF72CFE29464846B047E6E70649C8
:104B50002846FEF724FE29462046F6E75C110100B0
:104B6000691101009A110100C711010083110100B0
:104B70002DE9F043E7B000240DF198084FF480725E
:104B800081460F4640462146CDE9034405F08AFFA1
:104B9000802106A8FEF79CFD04AB064603AA29491E
:104BA0004846FEF7EBFD022844D120214846FEF797
:104BB00011FF20214846FEF70DFF059405A9484640
:104BC000FEF716FF0546D0B9009443469DF8102025
:104BD0009DF80C100220FFF7EDFA814610B3039BFD
:104BE0001949DFF8709022463046FEF7BAFD31468B
:104BF0002846B847AC4207D167B0BDE8F083059BB3
:104C000008F804300134D9E7049A18F80530009305
:104C10002A4449463046FEF7A4FD31460020B847F5
:104C20000135E7E709493046FEF7B9FD3146484608
:104C3000B847E1E706493046FEF7B1FD3146204668
:104C4000F6E700BF0712010011120100481201002F
:104C50007612010031120100F8B50D4628460E49C2
:104C60001646FEF72EFE0D4904462846FEF729FE9D
:104C7000202107462846FEF7ADFE2CB131462846D6
:104C8000FFF712FF0020F8BD27B131462846FFF795
:104C90006FFFF7E70120F6E75111010056110100FF
:104CA0000123024A1A600020704700BFEFBEADDE4C
:104CB0002DE9F047CCB00CACFF22204607F028F9D4
:104CC0002146684601F078FD002837D1DFF87C8066
:104CD0001C4D1D4F1D49684601F0BCFD824650BB6E
:104CE00098F816303BB398F80830DB0614D5204608
:104CF00007F0D1F8164A17498146201807F072F8D4
:104D00002E68134907EB0610FF22013607F000F961
:104D10002E6004F809A0DDE70D4A0F48214606F091
:104D2000E7FE2E680A4907EB0610FF22013607F05E
:104D3000EFF82E60CEE7684601F07DFD00204CB014
:104D4000BDE8F0873C2C0010402C0010A42B001074
:104D5000BA2B0010C8120100CC12010070B50D462C
:104D6000284617491646FEF7ACFD90B1202128468B
:104D7000FEF730FE2846FDF7A5F9014628B9114A8D
:104D80002846FEF72EFD012002E0FDF753FA002031
:104D900070BD0D492846FEF794FD68B120212846D4
:104DA000FEF718FE2846FDF78DF9014608B9074AB7
:104DB000E6E7FCF761FFEAE70549B047E3E700BF34
:104DC000D3120100DB12010004130100E312010001
:104DD0000B1301002DE9F04F89B0084604AF0D46D2
:104DE0009146FEF7ABFC041E04DDFDF7ADFD204649
:104DF000FDF734F9DAB00024FC6004F023FF0DF174
:104E0000100B786007F10C020A215846FDF7B4FB3D
:104E1000224A386022492846FEF7A3FC294620464C
:104E2000C847A0465E464FF0000A20E0736943453C
:104E30001AD1B269FB68144423B16421B3FBF1F3C6
:104E4000B2FBF3F3317BCDE90232338C9B00CDE929
:104E50000083144B726853F8213013492846FEF73B
:104E600080FC29460020C8470AF1010A24363B6825
:104E70005345DBD108F10108B8F10A0FD2D17B68A4
:104E80000A491A1B2846FEF76CFC29460020C84731
:104E900000201437BD46BDE8F08F00BF331301007A
:104EA00038130100B41301006313010080130100E3
:104EB00042884378007843EA022340EA032070479F
:104EC0000B0A017043700B0C090E8370C1707047A0
:104ED00010B5024410F8013B11F8014B9042A3EBCE
:104EE000040301D0002BF5D0184610BDC369023968
:104EF000023B8B4283BF4389006B01FB0300002010
:104F00007047024600F10B010020C30143EA500341
:104F100012F8010B50FA83F38A42D8B2F5D17047E8
:104F200002684AB1134613F8011B1F290BD93A290D
:104F3000F9D1911C8B4202D04FF0FF3070471278AC
:104F4000302AF9D103600020704701380A4411F873
:104F5000013B00F8013F9142F9D17047CA7E8B7E38
:104F6000032843EA022301BF487D0A7D42EA00226A
:104F700043EA024318467047C2F307238A76CB768A
:104F80000378032B01BF120C0A75120A4A75704789
:104F900070B500F13806426B044601233146407873
:104FA00001F04BFD054688B9616BA36A226AE07087
:104FB000CB1A934208D2A378022B05D10A440123CD
:104FC0003146607801F039FD284670BD0125FBE7C8
:104FD00038B5436B8B4204460D4619D0C3788BB964
:104FE00001232A4604F13801607801F012FD0028FF
:104FF00018BF4FF0FF35034665630CBF034601231E
:10500000184638BDFFF7C4FF03460028F8D1E7E78C
:105010000023F5E738B50023C3704FF0FF33436337
:105020000546FFF7D5FF044618BB95F8372295F8DB
:10503000363243EA02234AF6552293421BD195F8B1
:105040003830EB2B03D01833DBB2012B15D80322F9
:105050000B4905F16E00FFF73BFF40B105220949FE
:1050600005F18A00FFF734FF002818BF022420460C
:1050700038BD0424FBE70324F9E70224F7E700BF67
:1050800055140100591401002DE9F043002385B0A7
:105090000B600F461546FFF743FF061EC0F239812D
:1050A000A44B53F82640002C00F03581206901F014
:1050B00014FC002800F031813C60237805F0FE05E7
:1050C0006BB1607801F0A0FCC10708D41DB110F0ED
:1050D000040500D00A25284605B0BDE8F08300236A
:1050E000F0B22370607001F081FCC20700F11781FB
:1050F0000DB14307EED400212046FFF78BFF0228B5
:1051000040F0EE806F4604F5FF7104F23E263D4606
:1051100011F8040C10B10846FFF7CAFE10318E4298
:1051200045F8040BF4D1002557F8046B002E00F06D
:10513000CE8031462046FFF76DFF012800F2C8807F
:1051400094F8442094F8433043EA0223B3F5007FF7
:1051500040F0CA8094F84F3094F84E5055EA032539
:1051600004D104F15C00FFF7A3FE054694F8481053
:1051700025624B1E012BA17000F2B68094F8459079
:105180001FFA89F36381002B00F0AE8009F1FF3331
:1051900013EA090F40F0A88094F84A3094F8497057
:1051A00047EA03273FB21FFA87F818F00F0FA4F859
:1051B000088040F0998094F84C3094F84B0050EA05
:1051C000032003D104F15800FFF772FE94F8472042
:1051D00094F8463053EA022300F0868005FB01FC78
:1051E00003EB1812624490427ED3801A4845B0FB0C
:1051F000F9F179D35048814276D84FF6F570814263
:1052000040F28F804FF00309023133443244B9F148
:10521000030FE1616662A362226369D194F863209F
:1052200094F8623043EA02231F433FB2002F5BD160
:1052300004F16400FFF73CFEE062890001F2FF1117
:10524000B5EB512F50D34FF0FF33C4E90533B9F11B
:10525000030F4FF0800323712FD194F8692094F845
:10526000683043EA0223012B27D1711C2046FFF747
:10527000AFFE10BB94F8372294F83632207143EA1F
:1052800002234AF65522934217D104F13800FFF762
:105290000FFE2A4B984210D104F50770FFF708FE65
:1052A000274B984209D104F50870FFF701FEA06171
:1052B00004F50970FFF7FCFD6061224A84F8009054
:1052C000138801339BB21380E380002503E703209A
:1052D0000135042D7FF428AF042805D10125FAE615
:1052E0000428FBD0012801D90D25F4E6002627E784
:1052F000B8F1000FF8D06344B9F1020FE3624FEA4E
:1053000041031BBF5B1801F00101194601EB53017A
:1053100094E70B25DFE60C25DDE60F25DBE603250C
:10532000D9E640F6F57949458CBF4FF002094FF0B8
:10533000010969E7E02C0010F5FFFF0F52526141AF
:1053400072724161E42C001001292DE9F0470546F5
:105350000C46174672D9C3698B426FD90378022B6A
:105360003FD0032B50D0012B68D101EB5108816A4B
:1053700001EB5821FFF72CFE064638BB05F1380932
:1053800008F1010AC8F3080814F001041FBF19F856
:10539000083003F00F023B0103F0F00314BF134386
:1053A000FBB209F80830A96A0123EB7001EB5A211E
:1053B0002846FFF70DFE064640B9CAF3080A44B175
:1053C000C7F3071709F80A700123EB703046BDE8F0
:1053D000F08719F80A30C7F3032723F00F031F43A0
:1053E000F0E7816A01EB1421FFF7F2FD0646002881
:1053F000ECD1640005F1380304F4FF741A191F5549
:10540000C7F307275770DFE7816A01EBD411FFF775
:10541000DFFD06460028D9D1A40005F1380304F4C5
:10542000FE741C442046FFF743FD27F0704700F050
:10543000704139432046FFF743FDC5E70226C5E723
:105440000129F8B505460C4652D9C36999424FD295
:105450000378022B29D0032B38D0012B48D101EB44
:105460005106816A01EB5621FFF7B2FD10B14FF0F2
:10547000FF30F8BD771CA96AC6F308062E4401EB7D
:105480005721284696F83860FFF7A2FD0028EED194
:10549000C7F308073D44E30795F8380046EA0020C3
:1054A0004CBF0009C0F30B00E3E7816A01EB142154
:1054B000FFF78EFD0028DAD16400383504F4FF745C
:1054C0002B19285D5B7840EA0320D2E7816A01EB63
:1054D000D411FFF77DFD0028C9D1A40005F13800E3
:1054E00004F4FE742044FFF7E3FC20F07040C0E7B2
:1054F0000120BEE7B1F5001FF8B506460D4601D301
:105500000220F8BDCA06FBD1826804683161CAB9BD
:105510002378022B01D9E36A9BB92389B3EB551F8A
:10552000EED9E36AB361B3697261002BE8D003EB93
:1055300055233834C5F308052C44B361F4610020C9
:10554000DFE71A4667897F02BD42114604D2204632
:10555000FFF7CCFCB061E6E73068FFF771FF431C52
:10556000024606D00128CBD9E3698342C8D9ED1B96
:10557000EAE70120C5E72DE9F041804605680F46BE
:1055800049B96E69C6B1EB69B34298BF0126AB69F0
:10559000A3B9002406E02846FFF752FF012804467D
:1055A00003D801242046BDE8F081421C51D0EB69AC
:1055B0008342F7D83E46EAE70126E8E7BE4215D126
:1055C000EB69D8F80000741CA34298BF022421465E
:1055D000FFF736FF0128E4D0431C3AD0D8B16B69FD
:1055E000012B03D9EA69934238BF1E463446EB6962
:1055F0000134A34202D8012ECBD902242146D8F887
:105600000000FFF71DFF40B10128CAD0013020D0B3
:10561000B442ECD1BDE7002CE8D04FF0FF32214678
:105620002846FFF791FE90B957B9D5E90632023AFC
:1056300093426C6110D92B7943F001032B71B1E7D0
:10564000224639462846FFF77FFE0028EDD0012884
:10565000A7D14FF0FF34A5E7013BAB61EBE7F8B50D
:105660000D46012D0746114604682BD9E369AB426C
:1056700028D92AB14FF0FF322046FFF765FE30B936
:1056800029463868FFF7DCFE064608B90020F8BD59
:10569000012817D0431C17D0002229462046FFF7C7
:1056A00053FE0028F3D1D4E90632911E8B4205D275
:1056B0000133A361237943F001032371B2423546DC
:1056C000DED8E3E70220E2E70120E0E740B1A1F104
:1056D0000B03012B04D90F2902D0006901F006B990
:1056E000704738B50D460446F0B10368DBB11A784F
:1056F000B2B18188DA88914212D1186901F0EDF8CF
:10570000034698B12368587801F07EF910F0010043
:1057100002D124682C6038BD00212068FFF7D6FF35
:1057200009200024F6E71C460920F3E70F201C4659
:10573000F0E72DE9F0470026D0F800A08E758369C8
:1057400080460C46002B00F09080C36A01336BD179
:10575000D8F81C1000224D1E10462E2615F8013FC9
:10576000202B00F101000CD0052B08BFE5230928F0
:1057700004D10B2A9EBFA71801327E72A7180132EE
:105780007B720B28EAD1A31800205872A37D002B4E
:105790005AD1002A4FD004F1090010F8012B002A39
:1057A0004CD092B2A2F14105192D07D8082B0E7BDF
:1057B0008CBF102508252E4218BF203202730133FA
:1057C000EBE7B9F1000F05D100F520539BB2B3F51B
:1057D000006F12D340F2B51140EA094001F08CF895
:1057E000FF28C7F1800518D9012D20D9E319020A35
:1057F0009A75D87502231F44002002368146DAF8D4
:105800000C30985B0028DCD13D46B9F1000F18BF81
:10581000002525440023AB759AE750B1002DF4D044
:10582000E31998750123E6E7B1463746E7E7002517
:10583000EBE70546E9E73F23A37501232344002254
:105840009A750B7B03B96372CB7A237201F11C004A
:10585000FFF72EFB2060CA7D8B7D43EA0223E380A5
:105860004A7E0B7E43EA0223A380BDE8F087F8B5A9
:10587000C37804460D46C3B929462046FFF736FBD8
:1058800004F138060746606304F50E7233460021C2
:1058900003F8011B9342FBD1002563899D420AD383
:1058A0006089401B18BF0120F8BDFFF771FB00287D
:1058B000E2D00120F8E701237A193146607801F03F
:1058C000BCF80028ECD10135E7E72DE9F84307697A
:1058D00005682037B7F5001F24BF00238361836963
:1058E0000446894673B1C7F30808B8F1000F39D1EF
:1058F00041690133836139B92B89B3EB571F31D823
:105900000023A36104200BE06B89013B13EA5723BA
:1059100028D12846FFF794FD0128064602D8022028
:10592000BDE8F883421C01D10120F9E7EB6983420D
:1059300012D8B9F1000FE3D061692046FFF71BFED2
:105940000646A8B10128EAD0431CEDD001462846FE
:10595000FFF78DFF0028E7D1666131462846FFF743
:10596000C5FAA061383545442761E5610020D7E7D5
:105970000720D5E72DE9F04F002185B00446D0F887
:105980000080FFF7B7FD8146002840F08C804FF083
:10599000FF334FF0FF0AE36257460093A169404688
:1059A000FFF716FB814600287DD1E5692E78002E91
:1059B0007DD0EA7AE52E02F03F03A37103D01007F1
:1059C00004D50F2B04D0009BE36252E00F2B57D17C
:1059D00094F82B30590642D4720648D5236995F8BD
:1059E0000DA0E36206F0BF066B7B534541D1EA7E12
:1059F000AB7E53EA02233CD12F78D8F80CB007F0E5
:105A00003F077B1E0D275F432A4B012113F8012B13
:105A1000A81815F80290407849EA002959B37F2F59
:105A2000039326D8484600F09BFF7A1C02903BF86F
:105A30001700019200F094FF0299814219D1019A56
:105A4000039B494617461C4A9A42DFD12B785B06D6
:105A500003D511B13BF817305BB9013EF7B2002115
:105A60002046FFF732FF8146002897D01BE0B7425F
:105A7000BAD0FF27F3E74FF6FF729145E3D0F8E77E
:105A800027B92846FFF73DFA50450CD094F82B90E3
:105A900019F0010997D10B2204F120012846FFF7E4
:105AA00017FA00288FD1484605B0BDE8F08F4FF0B7
:105AB0000409F8E748140100551401002DE9F84FD6
:105AC000FF260768054634464FF004094FF6FF7875
:105AD000A96919B9B9F1000F6FD05FE03846FFF737
